:100000000000022095110000BD110000BF1100008A
:10001000C1110000C3110000C51100000000000064
:10002000000000000000000000000000C7110000F8
:10003000C911000000000000CB110000CD1100002C
:10004000CF110000CF11000045150000CF110000B6
:10005000ED070000CF110000CF110000CF1100000C
:10006000CF110000CF110000CF110000CF11000010
:10007000CF110000CF110000CF110000CF11000000
:10008000CF110000BD150000CF110000CF110000FE
:10009000CF110000CF110000CF110000CF110000E0
:1000A000CF110000CF110000CF110000CF110000D0
:1000B000CF110000CF110000000000000000000080
:1000C000CF110000CF110000CF110000CF110000B0
:1000D000CF110000CF110000CF110000CF110000A0
:1000E000CF11000000000000000000000000000030
:1000F00000000000CF11000000000000CF11000040
:1001000000000000000000000000000000000000EF
:1001100000000000000000000000000000000000DF
:1001200000000000000000000000000000000000CF
:1001300000000000000000000000000000000000BF
:1001400000000000000000000000000000000000AF
:10015000000000000000000000000000000000009F
:10016000000000000000000000000000000000008F
:10017000000000000000000000000000000000007F
:10018000000000000000000000000000000000006F
:10019000000000000000000000000000000000005F
:1001A000000000000000000000000000000000004F
:1001B000000000000000000000000000000000003F
:1001C000000000000000000000000000000000002F
:1001D000000000000000000000000000000000001F
:1001E000000000000000000000000000000000000F
:1001F00000000000000000000000000000000000FF
:10020000044B05481B1A062B02D9044B03B11847AF
:10021000704700BF7F0000207C000020000000002D
:1002200005490648091A891001EBD171491002D01D
:10023000034B03B1184770477C0000207C0000206E
:100240000000000010B5064C237843B9FFF7D8FF33
:10025000044B13B10448AFF300800123237010BD99
:100260007C000020000000006C22000008B5084B54
:100270001BB108490848AFF300800848036813B968
:10028000BDE80840CCE7064B002BF9D09847F7E7CC
:1002900000000000800000206C2200007800002098
:1002A00000000000154B002B08BF134B9D46A3F523
:1002B000803A00218B460F461348144A121A01F067
:1002C000C7FE0F4B002B00D098470E4B002B00D0E1
:1002D00098470020002104000D000D48002802D09E
:1002E0000C48AFF3008001F08DFE2000290001F0E2
:1002F0007BF901F073FE00BF00000800000002203F
:1003000000000000000000007C000020F40100203C
:100310000000000000000000F8B52B4800F0E2FAF1
:10032000002850D0284800F0F0FB274810EE107A43
:1003300000F0F9FB244810EE106A00F002FC22489D
:1003400010EE105A00F02DFC2049214810EE104A02
:1003500000F0E5FD384601F00BFB41EC100B0121EC
:100360001B4800F0D5FE1B49194800F0D8FD304667
:1003700001F0FEFA41EC100B0121154800F0C8FE17
:100380001549134800F0CBFD284601F0F1FA41EC85
:10039000100B01210E4800F0BBFE10490C4800F084
:1003A000BEFD204601F0E4FA41EC100B01210848A3
:1003B00000F0AEFE0A49064800F0B1FD0448BDE871
:1003C000F84000F0B3BDF8BD980000208C2000007C
:1003D0008C010020972000009C200000A12000003C
:1003E000A6200000044B00221A755A759A75DA751A
:1003F0001A765A76704700BF9800002008B54FF46F
:10040000E1310B4800F066FF0A49094800F096FD0B
:10041000094800F071F8084A0848192100F0DEFB8D
:1004200020B90749024800F089FDFEE708BD00BF7A
:100430008C010020A8200000CC00002098000020A3
:10044000BF2000002DE9F84380460D46174601EB1A
:1004500002090C464C45A4EB050609D0D8F800303B
:1004600014F8011B1B68404698470028F2D100E0B1
:100470003E463046BDE8F8837047203000F073BE3A
:1004800038B5437F0D462BB100F16804204600F0DB
:1004900078FE08B1002038BD2046294600F046FE0F
:1004A000012038BD203000F050BE203000F061BE89
:1004B0002DE9F0411E464FF47A73002583600D4B01
:1004C0004560044640F8203B8846174600F023FE6E
:1004D00004F1680000F01FFE9DF8183063769DF867
:1004E0001C30A376C4F810806761267665772046B5
:1004F000BDE8F08110210000F0B5837E2D4C2E4D1B
:1005000054F82320437E54F8233012F0200F14BFF8
:100510002F464FF0A04702F01F0213F0200F03F008
:100520001F0308BF4FF0A04502F5E07203F5E0732A
:10053000012140F20C66C17647F8226045F823603D
:1005400003694FF0CC72C3F824250622C3F80025B6
:10055000827E54F82220C3F80825427E54F82220D7
:10056000C3F80C25027E53B2D2B202F01F055C091B
:10057000A9406034114D002B45F8241006DA104BC9
:1005800002F00F02134440221A7606E003F16043A2
:1005900003F56143402283F80023037E01215AB210
:1005A00003F01F0301FA03F35209044941F8223012
:1005B000F0BD00BF282100000003005000E100E072
:1005C000FCEC00E02DE9F8430646894698461546BE
:1005D000B2B100F12007384600F0B3FD34690122C2
:1005E000C4F888952262C4F83475C4F8385522607E
:1005F000D4F84C313BB9D4F82431002BF8D002E0C8
:100600001046BDE8F8830023C4F84C31D4F85C31BF
:100610001BB9D4F82431002BF8D00023C4F85C3186
:100620000122B8F1000F02D1D4F8243143B1626144
:10063000D4F80431002BFBD00023C4F8043107E0C8
:10064000E261D4F84831002BFBD00023C4F84831D4
:10065000D4F8243113B10023C4F82431D4F83C0574
:100660003066C0B2BDE8F8830123FFF7ABBF10B519
:10067000044680F8B010683000F063FD0123637712
:1006800010BD2DE9F041002305694377012790F85B
:10069000B030C5F8883500F1680604462F62304650
:1006A000C5F84465884600F05EFD2369C5F8480535
:1006B0009F60D3F850211AB9D3F82421002AF8D02A
:1006C0000022C3F85021304600F04DFD236930B1BF
:1006D000D3F860211AB9D3F82421002AF8D00022D7
:1006E000C3F860210122B8F1000F02D1D3F8241120
:1006F00041B15A61D3F80421002AFBD00022C3F88B
:10070000042107E0DA61D3F84821002AFBD0002257
:10071000C3F84821D3F8240170B10022C3F8242182
:10072000D3F8C404C3F8C404022805D0042814BFB5
:1007300004200320BDE8F081BDE8F0810121FFF72E
:10074000A0BF4369D3F8642170B5044682B100228A
:10075000012500F12006C3F864210577304600F03A
:10076000F0FC63694022C3F83465C3F838251D6383
:100770006369D3F86821D2B10025C3F8685104F148
:100780006806012363772577304600F0DAFCD4F859
:10079000B43003B19847657765693046C5F844655C
:1007A00000F0E1FC6369C5F8480501225A636369FA
:1007B000D3F804215AB10022C3F80421227F32B1B8
:1007C000D3F83C05D4F8B830206603B19847636984
:1007D000D3F8242142B10022C3F82421D3F8D02435
:1007E000C3F8D02401225A6170BD00000148FFF710
:1007F000A8BF00BFCC00002007B5152314228DE848
:100800000C004FF04022042311460348FFF750FE2E
:1008100003B05DF804FB00BFCC000020F8B5012B4D
:1008200004460E4688BF41F08006017B00691746EA
:100830001D46FFF71CFF2069036831461B68984777
:1008400000212069FFF71DFFEAB2217B2069FFF735
:100850000BFF013D7E1E3D44AE4206D02069036879
:10086000DB68984706F8010FF6E70020F8BD1E2B5D
:10087000F8B505460E4617461C4617D8017B006999
:10088000FFF7F5FE2869036831461B689847013C6D
:100890007E1E3C44A642286905D0036816F8011F55
:1008A0001B689847F6E7FFF749FFF8BD0120F8BD40
:1008B00038B50446017B0069FFF7D9FE2069FFF7D0
:1008C0003DFF50B9064D2046294600F0FDFA287834
:1008D000A0F133035842584138BD002038BD00BF55
:1008E0008801002007B501A900F0DBFA9DF804009B
:1008F000003018BF012003B05DF804FB10B50446BA
:100900002046FFF7EFFF18B9012000F049FEF7E796
:1009100010BD13B50023044669460093ADF80430BA
:1009200000F0CDFABDF802306385BDF80430A38530
:10093000237EBDF800002085032B00F2CF80DFE886
:1009400003F0022A6197637E012B14D0C0F0C680A9
:10095000022B40F0D48000B200F0C7F9B4F92A00AD
:1009600084ED070A00F0C1F9B4F92C0084ED080AFF
:1009700000F0BBF9C1E000B200F082F9B4F92A003E
:1009800084ED070A00F07CF9B4F92C0084ED080A24
:1009900000F076F9B1E0637E012B23D012D3022B55
:1009A00040F0AD8000B200F0A9F9B4F92A0084ED5E
:1009B000070A00F0A3F9B4F92C0084ED080A00F04E
:1009C0009DF99AE000B200F042F9B4F92A0084EDF2
:1009D000070A00F03CF9B4F92C0084ED080A00F095
:1009E00036F98AE000B200F054F9B4F92A0084ED37
:1009F000070A00F04EF9B4F92C0084ED080A00F063
:100A000048F97AE0637E012B22D011D3022B76D1F4
:100A100000B200F07FF9B4F92A0084ED070A00F073
:100A200079F9B4F92C0084ED080A00F073F964E058
:100A300000B200F013F9B4F92A0084ED070A00F0BF
:100A40000DF9B4F92C0084ED080A00F007F954E020
:100A500000B200F027F9B4F92A0084ED070A00F08B
:100A600021F9B4F92C0084ED080A00F01BF944E0E8
:100A7000637E012B22D011D3022B40D100B200F0B3
:100A800055F9B4F92A0084ED070A00F04FF9B4F9DA
:100A90002C0084ED080A00F049F92EE000B200F0C5
:100AA000E6F8B4F92A0084ED070A00F0E0F8B4F99A
:100AB0002C0084ED080A00F0DAF81EE000B200F025
:100AC000FBF8B4F92A0084ED070A00F0F5F8B4F950
:100AD0002C0084ED080A00F0EFF80EE000B200F000
:100AE000B1F8B4F92A0084ED070A00F0ABF8B4F9C4
:100AF0002C0084ED080A00F0A5F884ED090A012312
:100B000023756375A37502B010BD037D10B504464F
:100B100023B9FFF7F3FE2046FFF7FBFE0023237502
:100B200094ED070A10BD437D10B5044623B9FFF7C5
:100B3000E5FE2046FFF7EDFE0023637594ED080AFD
:100B400010BD837D10B5044623B9FFF7D7FE2046BC
:100B5000FFF7DFFE0023A37594ED090A10BD13B55E
:100B60000446002301A9ADF8043000F0F9F8637ED3
:100B7000012B0CD006D3022B0FD1BDF9040000F0DD
:100B8000E1F808E0BDF9040000F0ADF803E0BDF9BC
:100B9000040000F09DF884ED0C0A0123E37502B017
:100BA00010BDC37D10B5044623B9FFF7A7FE20464C
:100BB000FFF7D5FF0023E37594ED0C0A10BD032960
:100BC00088BF0021017600F03EB9032100F0CDB8C6
:100BD000022988BF0021417600F0DEB838B504460E
:100BE0000F4B03600F4B026101734360A060FFF77E
:100BF0005FFE054690B10121204600F03BF903213C
:100C0000204600F009F900212046FFF7D8FF2046D2
:100C1000FFF7DBFF00212046FFF7DAFF284638BD4B
:100C20006F0800001D08000010B444688068A446E6
:100C30005DF8044B604710B404688068A4465DF812
:100C4000044B604700EE100ABAEECE0A704700EE81
:100C5000100ABAEECE0A30EE000A704700EE100A13
:100C6000BAEECE0AF1EE007A20EE270A704700EEC7
:100C7000100ABAEECE0AF2EE087A20EE270A704782
:100C800000EE100ABAEECD0AF1EE007A20EE270A45
:100C9000704700EE100ABAEECD0AF2EE007A20EEAE
:100CA000270A704700EE100ABAEECD0AF3EE007A7A
:100CB00020EE270A7047000000EE100ADFED037AED
:100CC000BAEECD0A20EE270A704700BF000040426E
:100CD00007EE100ABAEECD7AF5EE007AB3EE090A05
:100CE000A7EE270A7047FFF7F3BF00EE100ABAEE2F
:100CF000CC0AF3EE007A20EE270A704700EE100AC5
:100D0000DFED037ABAEECC0A20EE270A704700BF67
:100D10000000004200EE100ADFED037ABAEECC0AC2
:100D200020EE270A704700BF0000804200EE100A44
:100D3000DFED037ABAEECC0A20EE270A704700BF37
:100D40000000404307EE900AB8EEE77ADFED037A41
:100D5000B3EE090AA7EE270A704700BF0000803BE8
:100D60000A4602230C21FFF75FBF37B501230D466A
:100D700001AA1F210446FFF757FF58B99DF8043018
:100D800065F387138DF8043001AA01231F21204643
:100D9000FFF751FF03B030BD37B501230C466A465B
:100DA00020210546FFF740FFA0BB012301AA232114
:100DB0002846FFF739FF68BB54B99DF8003064F34B
:100DC000C3038DF800309DF8043043F0080312E0AF
:100DD000012C04D19DF8003060F3C30305E0022C20
:100DE0000BD19DF8003043F008038DF800309DF8DA
:100DF000043060F3C3038DF8043001236A462021D8
:100E00002846FFF718FF28B9012301AA2321284605
:100E1000FFF711FF03B030BD37B501230D4601AA1E
:100E200020210446FFF700FF58B99DF8043065F310
:100E300007138DF8043001AA012320212046FFF773
:100E4000FAFE03B030BD37B501230D4601AA2321B8
:100E50000446FFF7E9FE58B99DF8043065F3051321
:100E60008DF8043001AA012323212046FFF7E3FE79
:100E700003B030BD37B501230D4601AA2321044636
:100E8000FFF7D2FE58B99DF8043065F3C7138DF80B
:100E9000043001AA012323212046FFF7CCFE03B032
:100EA00030BD13B501230C4601AA2721FFF7BCFE74
:100EB0009DF80430C3F3C003237002B010BD0A468E
:100EC00006232821FFF7B0BE0A4601230F21FFF7B2
:100ED000ABBE2DE9F04106460D4601EB02080C467B
:100EE0004445A4EB050707D0336814F8011B1B68C1
:100EF000304698470028F3D13846BDE8F08170B5F8
:100F000005460C46084649B101F0AAF82B6802468E
:100F1000214628465B68BDE87040184770BD08B59B
:100F2000FFF7EDFF08BD03681B68184708B50249C5
:100F3000FFF7E5FF08BD00BF2822000038B50546D1
:100F4000FFF7DDFF04462846FFF7F0FF204438BDD9
:100F5000F0B58BB000238DF82430012A98BF0A2207
:100F60000DF12305B1FBF2F402FB1416F3B2092EC6
:100F700094BF30333733DBB22F46214605F80139B1
:100F8000002CEFD13946FFF7BAFF0BB0F0BD2DE9C9
:100F9000F04107460E4615462AB90368C9B21B68D8
:100FA000BDE8F04118470A2A02D1002901DA04E01D
:100FB000D2B2BDE8F041FFF7CBBF2D21FFF7B3FF61
:100FC0002A46044671423846FFF7C2FF2044BDE876
:100FD000F08100002DE9F843804657EC106B0D4678
:100FE00000F034FB08B9424910E047EC106B00F008
:100FF0002DFB012801D13F4908E04FF060423E4BF4
:101000003046394600F098FF28B13C494046FFF78A
:1010100076FFBDE8F8834FF06042394B30463946E1
:1010200000F06CFF0028F0D1002200233046394642
:1010300000F064FF40B12D214046FFF774FF07F137
:10104000004304461F4600E004462E494FF00009C5
:1010500000205FFA89F39D4206D900222A4B00F056
:1010600005FE09F10109F4E732463B4600F022FB98
:101070000F46064600F092FF0A220146814640468E
:10108000FFF766FF04447DB3484600F04FFC02467C
:101090000B463046394600F00BFB06460F464046ED
:1010A0001A49FFF72CFF0444174B002230463946FB
:1010B00000F0B2FC0F46064600F048FF0A22014647
:1010C00081464046FFF763FF0444484600F03EFC7B
:1010D00002460B463046394600F0EAFA013D15F06B
:1010E000FF0506460F46DFD12046BDE8F88300BF66
:1010F0002B2200002F220000FFFFEF4133220000CF
:10110000FFFFEFC10000E03F000024400621000087
:10111000C9B2FFF75FBF10B540220446002100F0BE
:1011200097FF002323646364204610BD026C10B552
:10113000531C446C03F03F039C421CBF8154036466
:1011400010BD0023036443647047436C026C9342F8
:101150001FBFC25C013303F03F03436414BF10465A
:101160004FF0FF307047036C406C181A48BF403096
:101170007047436C026C934214BFC05C4FF0FF3069
:101180007047036C406C013303F03F031B1A584255
:10119000584170470649074A074B9B1A03DD043B39
:1011A000C858D050FBDC00F013F8FFF77BF80000C4
:1011B00078220000000000207C000020FEE7FEE70F
:1011C000FEE7FEE7FEE7FEE7FEE7FEE7FEE7FEE7F7
:1011D0003A4B1A680D2A1FD01B680D2B26D0374BAF
:1011E0001B680D2B09D14FF08043D3F80024D207A0
:1011F00003D56FF00102C3F80024314AD2F88830D9
:1012000043F47003C2F88830BFF34F8FBFF36F8F82
:101210002C4B2D4A1A6070474FF080420021C2F8D3
:101220000C11C2F81011C2F83815D5E74FF08052F2
:10123000264BD2F80414C3F82015D2F80814C3F8CA
:101240002415D2F80C14C3F82815D2F81014C3F8DA
:101250002C15D2F81414C3F83015D2F81814C3F8AA
:101260003415D2F81C14C3F84015D2F82014C3F872
:101270004415D2F82414C3F84815D2F82814C3F83A
:101280004C15D2F82C14C3F85015D2F83014C3F80A
:101290005415D2F83414C3F86015D2F83814C3F8D2
:1012A0006415D2F83C14C3F86815D2F84014C3F89A
:1012B0006C15D2F84424C3F8702590E73001001073
:1012C00000ED00E0000000200090D00300C00040CE
:1012D0000120704703681322DB69184770470369D0
:1012E000C3F81C15D3F81C21002AFBD00022C3F838
:1012F0001C2101207047000090F85C305AB252095E
:1013000010B4012120320F4C03F01F0301FA03F344
:1013100044F8223003695DF8044B0422C3F8082323
:1013200000225960D960C3F800254FF0FF32C3F89E
:101330000C251430C3F81425C3F80825C3F810256C
:10134000FFF7FFBE00E100E01430FFF70CBF1430E0
:10135000FFF70FBF1430FFF7F8BE0000026990F8E6
:101360005E3030B5C2F80C3590F85D30C2F81435F7
:1013700090F86130012B01BF90F85F40C2F8104532
:1013800090F86040C2F8084518BF0023B1F5966F89
:10139000C2F86C352ED9B1F5166F2ED9B1F5965F1E
:1013A0002ED9B1F5165F2DD9B1F5615F2CD9B1F504
:1013B000964F2BD9B1F5E14F2AD9B1F5164F29D95E
:1013C000B1F5614F29D9B1F5963F29D9B1F5E13F82
:1013D00028D9B1F5613F28D9344B994228D9B1F5C4
:1013E000E12F28D9B1F5612F8CBF4FF080534FF01A
:1013F000706322E04FF49E231FE04FF41D231CE096
:101400002B4B1AE02B4B18E02B4B16E02B4B14E028
:101410002B4B12E04FF41D030FE04FF46B030CE075
:10142000284B0AE04FF0EB7307E04FF06C7304E0D9
:101430004FF0806301E04FF0E863C2F824350021EB
:101440000423C2F80035C2F80811C2F81C110121AA
:1014500011609160C2F8043390F85C2053B2D2B2AC
:1014600002F01F055C09A9406034174D002B45F8B8
:10147000241006DA154B02F00F02134460221A768C
:1014800006E003F1604303F56143602283F8002323
:1014900090F85C3001215AB203F01F0301FA03F304
:1014A0005209094941F8223030BD00BF90D00300F5
:1014B00000B013000050270000F03A0000A04E00DA
:1014C00000C0750000903A0100E100E0FCEC00E093
:1014D0002DE9F0411E464FF47A73002583600E4BD0
:1014E0004560044640F8143B17468846FFF713FE54
:1014F0000A4AC4F8108052F8263084F85D309DF80E
:10150000183084F85C7052F8233084F85E3084F828
:1015100061502046BDE8F0814022000028210000F3
:101520000369D3F8082110B504464AB1D3F8181559
:101530001430C9B2FFF7FAFD23690022C3F808216D
:1015400010BD00000148FFF7EBBF00BF8C01002079
:1015500007B5012300930222002303490348FFF744
:10156000B7FF03B05DF804FB002000408C010020B1
:10157000094B1968094B30B5D3F804050A060B0A64
:1015800002434FF47A71A2FB014501FB0355E00BC6
:1015900040EA454030BD00BFF0010020001001408E
:1015A00038B5044648B1FFF7E3FF054600F01AF8E6
:1015B000FFF7DEFF401B8442F8D838BD074B0022FE
:1015C000C3F8042182B0D3F80431054A0193019B8A
:1015D00013680133DBB2136002B0704700100140A2
:1015E000F00100207047704708B500F011F8FFF7D0
:1015F000FAFF0120FFF7D4FFFEF700FF034CFEF7D0
:101600008BFE002CFBD0AFF30080F8E70000000059
:101610000D4BE02283F811234FF40032C3F88021F0
:101620001A604FF080430122C3F818259A6003F531
:1016300088330021C3F808150221C3F80413C3F846
:1016400044131A60704700BF00E100E053EC102B18
:1016500033F0004110B408D01148A3F5801484423F
:1016600008D804205DF8044B70471AB902205DF8D1
:10167000044B704703F1FF43094803F5E00383423D
:10168000EFD9B1F5801F01D20320EBE7054B99425A
:1016900001D00020E6E7B2FA82F04009E2E700BF9D
:1016A000FFFFDF7F0000F07F81F0004102E000BF1C
:1016B00083F0004330B54FEA41044FEA430594EA12
:1016C000050F08BF90EA020F1FBF54EA000C55EA4D
:1016D000020C7FEA645C7FEA655C00F0E2804FEA1E
:1016E0005454D4EB5555B8BF6D420CDD2C4480EA00
:1016F000020281EA030382EA000083EA010180EA30
:10170000020281EA0303362D88BF30BD11F0004F7D
:101710004FEA01314FF4801C4CEA113102D04042B3
:1017200061EB410113F0004F4FEA03334CEA1333EE
:1017300002D0524263EB430394EA050F00F0A78006
:10174000A4F10104D5F1200E0DDB02FA0EFC22FA01
:1017500005F2801841F1000103FA0EF2801843FAF5
:1017600005F359410EE0A5F120050EF1200E012AE6
:1017700003FA0EFC28BF4CF0020C43FA05F3C01824
:1017800051EBE37101F0004507D54FF0000EDCF19D
:10179000000C7EEB00006EEB0101B1F5801F1BD346
:1017A000B1F5001F0CD349085FEA30004FEA3C0C4A
:1017B00004F101044FEA445212F5800F80F09A8040
:1017C000BCF1004F08BF5FEA500C50F1000041EB44
:1017D000045141EA050130BD5FEA4C0C404141EB48
:1017E000010111F4801FA4F10104E9D191F0000F6F
:1017F00004BF01460020B1FA81F308BF2033A3F1F2
:101800000B03B3F120020CDA0C3208DD02F1140CE8
:10181000C2F10C0201FA0CF021FA02F10CE002F123
:101820001402D8BFC2F1200C01FA02F120FA0CFC1C
:10183000DCBF41EA0C019040E41AA2BF01EB045165
:10184000294330BD6FEA04041F3C1CDA0C340EDC63
:1018500004F11404C4F1200220FA04F001FA02F3A6
:1018600040EA030021FA04F345EA030130BDC4F164
:101870000C04C4F1200220FA02F001FA04F340EA59
:101880000300294630BD21FA04F0294630BD94F00A
:10189000000F83F4801306BF81F480110134013DF1
:1018A0004EE77FEA645C18BF7FEA655C29D094EA62
:1018B000050F08BF90EA020F05D054EA000C04BFE0
:1018C0001946104630BD91EA030F1EBF00210020CB
:1018D00030BD5FEA545C05D14000494128BF41F06A
:1018E000004130BD14F580043CBF01F5801130BDCE
:1018F00001F0004545F0FE4141F470014FF0000059
:1019000030BD7FEA645C1ABF194610467FEA655C09
:101910001CBF0B46024650EA013406BF52EA0335AB
:1019200091EA030F41F4002130BD00BF90F0000F99
:1019300004BF0021704730B54FF4806404F13204D5
:101940004FF000054FF0000150E700BF90F0000F8E
:1019500004BF0021704730B54FF4806404F13204B5
:1019600010F0004548BF40424FF000013EE700BF85
:1019700042004FEAE2014FEA31014FEA02701FBF15
:1019800012F07F4393F07F4F81F06051704792F0E7
:10199000000F14BF93F07F4F704730B54FF4607461
:1019A00001F0004521F0004120E700BF50EA0102AC
:1019B00008BF704730B54FF000050AE050EA010259
:1019C00008BF704730B511F0004502D5404261EBC9
:1019D00041014FF4806404F132045FEA915C3FF40A
:1019E000DCAE4FF003025FEADC0C18BF03325FEAA3
:1019F000DC0C18BF033202EBDC02C2F1200300FA58
:101A000003FC20FA02F001FA03FE40EA0E0021FA7C
:101A100002F11444C1E600BF70B54FF0FF0C4CF466
:101A2000E06C1CEA11541DBF1CEA135594EA0C0F1C
:101A300095EA0C0F00F0DEF82C4481EA030621EA57
:101A40004C5123EA4C5350EA013518BF52EA033592
:101A500041F4801143F4801338D0A0FB02CE4FF044
:101A60000005E1FB02E506F00042E0FB03E54FF074
:101A70000006E1FB03569CF0000F18BF4EF0010E6C
:101A8000A4F1FF04B6F5007F64F5407404D25FEA68
:101A90004E0E6D4146EB060642EAC62141EA55511B
:101AA0004FEAC52040EA5E504FEACE2EB4F1FD0C5D
:101AB00088BFBCF5E06F1ED8BEF1004F08BF5FEADB
:101AC000500E50F1000041EB045170BD06F000468D
:101AD00046EA010140EA020081EA0301B4EB5C043A
:101AE000C2BFD4EB0C0541EA045170BD41F4801132
:101AF0004FF0000E013C00F3AB8014F1360FDEBF57
:101B0000002001F0004170BDC4F10004203C35DA32
:101B10000C341BDC04F11404C4F1200500FA05F3B5
:101B200020FA04F001FA05F240EA020001F0004256
:101B300021F0004110EBD37021FA04F642EB0601CC
:101B40005EEA430E08BF20EAD37070BDC4F10C04F6
:101B5000C4F1200500FA04F320FA05F001FA04F2BA
:101B600040EA020001F0004110EBD37041F10001A6
:101B70005EEA430E08BF20EAD37070BDC4F12005B1
:101B800000FA05F24EEA020E20FA04F301FA05F219
:101B900043EA020321FA04F001F0004121FA04F2C1
:101BA00020EA020000EBD3705EEA430E08BF20EA91
:101BB000D37070BD94F0000F0FD101F000464000CB
:101BC00041EB010111F4801F08BF013CF7D041EA4D
:101BD000060195F0000F18BF704703F00046520051
:101BE00043EB030313F4801F08BF013DF7D043EA22
:101BF0000603704794EA0C0F0CEA135518BF95EAD8
:101C00000C0F0CD050EA410618BF52EA4306D1D15E
:101C100081EA030101F000414FF0000070BD50EA7D
:101C2000410606BF1046194652EA430619D094EA07
:101C30000C0F02D150EA013613D195EA0C0F05D1F1
:101C400052EA03361CBF104619460AD181EA030145
:101C500001F0004141F0FE4141F470014FF00000FD
:101C600070BD41F0FE4141F4780170BD70B54FF098
:101C7000FF0C4CF4E06C1CEA11541DBF1CEA135518
:101C800094EA0C0F95EA0C0F00F0A7F8A4EB0504FA
:101C900081EA030E52EA03354FEA013100F08880F1
:101CA0004FEA03334FF0805545EA131343EA1263BA
:101CB0004FEA022245EA111545EA10654FEA00266F
:101CC0000EF000419D4208BF964244F1FD0404F528
:101CD000407402D25B084FEA3202B61A65EB030584
:101CE0005B084FEA32024FF480104FF4002CB6EB41
:101CF000020E75EB030E22BFB61A754640EA0C00C1
:101D00005B084FEA3202B6EB020E75EB030E22BF00
:101D1000B61A754640EA5C005B084FEA3202B6EB41
:101D2000020E75EB030E22BFB61A754640EA9C0000
:101D30005B084FEA3202B6EB020E75EB030E22BFD0
:101D4000B61A754640EADC0055EA060E18D04FEA8E
:101D5000051545EA16754FEA06164FEAC30343EA2E
:101D600052734FEAC2025FEA1C1CC0D111F4801FFB
:101D70000BD141EA00014FF000004FF0004CB6E7F4
:101D800011F4801F04BF01430020B4F1FD0C88BF93
:101D9000BCF5E06F3FF6AFAEB5EB030C04BFB6EB9E
:101DA000020C5FEA500C50F1000041EB045170BD91
:101DB0000EF0004E4EEA113114EB5C04C2BFD4EBBE
:101DC0000C0541EA045170BD41F480114FF0000E42
:101DD000013C90E645EA060E8DE60CEA135594EABE
:101DE0000C0F08BF95EA0C0F3FF43BAF94EA0C0FC1
:101DF0000AD150EA01347FF434AF95EA0C0F7FF436
:101E000025AF104619462CE795EA0C0F06D152EA89
:101E100003353FF4FDAE1046194622E750EA41066D
:101E200018BF52EA43067FF4C5AE50EA41047FF47E
:101E30000DAF52EA43057FF4EBAE12E74FF0FF3CE3
:101E400006E000BF4FF0010C02E000BF4FF0010CB4
:101E50004DF804CD4FEA410C7FEA6C5C4FEA430C2D
:101E600018BF7FEA6C5C1BD001B050EA410C0CBF7C
:101E700052EA430C91EA030F02BF90EA020F0020DE
:101E8000704710F1000F91EA030F58BF994208BF45
:101E900090422CBFD8176FEAE37040F00100704702
:101EA0004FEA410C7FEA6C5C02D150EA013C07D159
:101EB0004FEA430C7FEA6C5CD6D152EA033CD3D0A4
:101EC0005DF8040B704700BF8446104662468C469E
:101ED0001946634600E000BF01B5FFF7B7FF0028D1
:101EE00048BF10F1000F01BD4DF808EDFFF7F4FFFA
:101EF0000CBF012000205DF808FB00BF4DF808ED85
:101F0000FFF7EAFF34BF012000205DF808FB00BFA7
:101F10004DF808EDFFF7E0FF94BF012000205DF8C9
:101F200008FB00BF4DF808EDFFF7CEFF94BF01207E
:101F300000205DF808FB00BF4DF808EDFFF7C4FF77
:101F400034BF012000205DF808FB00BF4FEA4102CA
:101F500012F5001215D211D56FF47873B3EB6252FB
:101F600012D94FEAC12343F0004343EA505311F022
:101F7000004F23FA02F018BF404270474FF00000B4
:101F8000704750EA013005D111F0004008BF6FF0F2
:101F9000004070474FF00000704700BF4A0011D268
:101FA00012F5001211D20DD56FF47873B3EB6252B3
:101FB0000ED44FEAC12343F0004343EA505323FABF
:101FC00002F070474FF00000704750EA013002D134
:101FD0004FF0FF3070474FF00000704708B5074BD7
:101FE000044613B10021AFF30080054B1868836AE3
:101FF00003B19847204600F03BF800BF0000000006
:102000006822000070B50E4B0E4CE41AA410002597
:102010001E46A54204D056F8253098470135F8E70A
:1020200000F028F8084C094BE41AA41000251E46BD
:10203000A54204D056F8253098470135F8E770BD21
:102040006400002064000020740000206400002070
:1020500002440346934202D003F8011BFAE770479B
:10206000034613F8012B002AFBD1181A01387047D8
:10207000FEE700BFF8B500BFF8BC08BC9E4670473D
:10208000F8B500BFF8BC08BC9E46704741636320AA
:102090005B6D675D3A200020782C200020792C2091
:1020A00000207A2C20004300537061726B46756EDD
:1020B00020416363656C204578616D706C650041FB
:1020C0006363656C65726F6D65746572206E6F74A5
:1020D0002064657465637465642E20436865636B72
:1020E0002061646472657373206A756D7065722017
:1020F000616E6420776972696E672E20467265652D
:102100007A696E672E2E2E0000000000000000008D
:1021100081040000450400007B040000A5040000C9
:10212000AB04000079040000000000000100000082
:102130000200000003000000040000000500000091
:102140000600000007000000080000000900000071
:102150000A0000000B0000000C0000000D00000051
:102160000E0000000F000000100000001100000031
:102170001200000013000000140000001500000011
:1021800016000000170000001800000019000000F1
:102190001A0000001B0000001C0000001D000000D1
:1021A0001E0000001F0000002000000021000000B1
:1021B0002200000023000000240000002500000091
:1021C0002600000027000000280000002900000071
:1021D0002A0000002B0000002C0000002D00000051
:1021E0002E0000002F000000300000003100000031
:1021F0003200000033000000340000003500000011
:1022000036000000370000003800000039000000F0
:102210003A0000003B0000003C0000003D000000D0
:102220003E0000003F0000000D0A006E616E006974
:102230006E66006F7666000000000000000000007F
:10224000DF120000D30E00004913000055130000F8
:102250004F130000DD120000D51200005D130000D6
:10226000F9120000D112000004000020000000005C
:0822700034E0FF7F01000000D3
:102278000090D003000000000000000000000000F3
:102288000000000000000000000000000000000046
:1022980000000000A6200000000000000000000070
:1022A8000000000000000000000000000000000026
:1022B8000000000000000000000000000000000016
:1022C8000000000000000000000000000000000006
:1022D800000000006D020000E5030000F90700009F
:0C22E8005115000045020000000000003D
:040000030000119553
:00000001FF
